:10274500122197E4FFFE1226FC12259FE4FFFE12DC
:1027550026FC122786E4FFFE1226FC122653E4FF10
:10276500FE1226FC12243CE4FFFE1226FC1223185E
:10277500E4FFFE1226FC1225F9E4FFFE1226FC807A
:01278500C88B
:100003000000000000000000002F000000000700B7
:10001300070000147F147F1400242A7F2A12006231
:1000230064081323003649552250000005030000DD
:1000330000001C224100000041221C000014083E65
:1000430008140008083E0808000000A0600000082B
:10005300080808080000606000000020100804027F
:10006300003E5149453E0000427F4000004261513D
:100073004946002141454B31001814127F100027D7
:1000830045454539003C4A4949300001710905039A
:1000930000364949493600064949291E00003636CB
:1000A300000000005636000000081422410000142E
:1000B300141414140000412214080002015109060B
:1000C30000324959513E007C1211127C007F49498C
:1000D3004936003E41414122007F4141221C007FBD
:1000E30049494941007F09090901003E4149497ACB
:1000F300007F0808087F0000417F41000020404145
:100103003F01007F08142241007F40404040007FB0
:10011300020C027F007F0408107F003E4141413EF4
:10012300007F09090906003E4151215E007F09193C
:1001330029460046494949310001017F0101003F39
:100143004040403F001F2040201F003F4038403FB9
:10015300006314081463000708700807006151491D
:10016300454300007F4141000002040810200000C5
:1001730041417F000004020102040040404040402E
:10018300000001020400002054545478007F4844C6
:10019300443800384444442000384444487F0038FD
:1001A3005454541800087E0901020018A4A4A47C26
:1001B300007F080404780000447D400000408084F0
:1001C3007D00007F102844000000417F4000007C38
:1001D30004180478007C0804047800384444443844
:1001E30000FC242424180018242418FC007C080490
:1001F300040800485454542000043F444020003C69
:100203004040207C001C2040201C003C4030403CEF
:10021300004428102844001CA0A0A07C004464547F
:100223004C440008364100000000007E000000003E
:1002330041360800001008102010000000000000E4
:1002430000000000000000000000000000F80000B3
:100253000000000000333000000000100C06100CFA
:100263000600000000000000000040C07840C07895
:100273004000043F04043F040400007088FC08307D
:100283000000001820FF211E0000F008F000E01815
:10029300000000211C031E211E0000F008887000CE
:1002A30000001E2123241927211010160E00000020
:1002B30000000000000000000000000000E018043F
:1002C3000200000000071820400000020418E000AC
:1002D30000000040201807000000404080F08040EC
:1002E30040000202010F01020200000000F00000C2
:1002F30000000101011F01010100000000000000D6
:10030300000080B07000000000000000000000004A
:1003130000000001010101010101000000000000D3
:10032300000000303000000000000000000080608A
:100333001804006018060100000000E0100808100F
:10034300E000000F102020100F00001010F8000034
:1003530000000020203F20200000007008080888CB
:10036300700000302824222130000030088888489B
:1003730030000018202020110E000000C02010F8CB
:10038300000000070424243F240000F8088888089C
:1003930008000019212020110E0000E010888818A1
:1003A3000000000F112020110E0000380808C83883
:1003B30008000000003F0000000000708808088863
:1003C3007000001C222121221C0000E010080810EC
:1003D300E0000000312222110F00000000C0C00025
:1003E300000000000030300000000000008000002A
:1003F300000000008060000000000000804020102A
:100403000800000102040810200040404040404022
:100413004000040404040404040000081020408085
:1004230000000020100804020100007048080808BA
:10043300F0000000003036010000C030C828E8108A
:10044300E0000718272423140B000000C038E00045
:100453000000203C23020227382008F8888888708F
:100463000000203F202020110E00C030080808089B
:100473003800071820202010080008F80808081082
:10048300E000203F202020100F0008F88888E808AB
:100493001000203F20202320180008F88888E8084F
:1004A3001000203F200003000000C0300808083877
:1004B300000007182020221E020008F80800000888
:1004C300F808203F210101213F20000808F808080F
:1004D30000000020203F2020000000000808F8084A
:1004E3000800C08080807F00000008F888C02818BA
:1004F3000800203F20012638200008F808000000EB
:100503000000203F20202020300008F8F800F8F8F1
:100513000800203F003F003F200008F830C00008DB
:10052300F808203F200007183F00E01008080810D3
:10053300E0000F10202020100F0008F8080808081A
:10054300F000203F210101010000E010080808101D
:10055300E0000F18242438504F0008F88888888852
:100563007000203F2000030C30200070880808082A
:1005730038000038202121221C00180808F8080838
:1005830018000000203F2000000008F808000008C1
:10059300F808001F202020201F000878880000C8CA
:1005A3003808000007380E010000F80800F80008BA
:1005B300F800033C0700073C0300081868808068C4
:1005C300180820302C03032C30200838C800C83802
:1005D30008000000203F2000000010080808C83869
:1005E30008002038262120201800000000FE020207
:1005F30002000000007F40404000000C30C00000BB
:100603000000000000010638C00000020202FE00E4
:100613000000004040407F0000000000040202028E
:1006230004000000000000000000000000000000C3
:1006330000008080808080808080000202040000AF
:1006430000000000000000000000000080808080A7
:1006530000000019242222223F2008F80080800095
:100663000000003F112020110E0000000080808058
:100673000000000E1120202011000000008080885F
:10068300F800000E112020103F20000080808080A1
:100693000000001F222222221300008080F088889D
:1006A30088180020203F20200000000080808080E8
:1006B3008000006B94949493600008F8008080801D
:1006C3000000203F210000203F2000809898000078
:1006D30000000020203F20200000000000809898A8
:1006E300000000C08080807F000008F80000808048
:1006F3008000203F24022D302000000808F800006D
:1007030000000020203F2020000080808080808027
:100713008000203F20003F20003F808000808080B9
:100723000000203F210000203F20000080808080C7
:100733000000001F202020201F00808000808000F8
:10074300000080FFA12020110E00000000808080A7
:100753008000000E112020A0FF8080808000808018
:10076300800020203F212000010000008080808045
:1007730080000033242424241900008080E080803A
:1007830000000000001F2020000080800000008087
:100793008000001F202020103F20808080000080E8
:1007A300808000010E3008060100808000800080F8
:1007B30080800F300C030C300F000080800080809D
:1007C30080000020312E0E312000808080000080C8
:1007D300808080818E701806010000808080808078
:1007E30080000021302C2221300000000000807C9A
:1007F300020200000000003F404000000000FF0034
:10080300000000000000FF0000000002027C8000E6
:1008130000000040403F000000000006010102020A
:1008230004040000000000000000C8AB80804020EA
:10083300504844C344485020408080000040404416
:100843004444447F4444444440400000B6AF4044E1
:10085300C4444444401010FF101010F00000103C3A
:10086300131014B840300E014080403F0000B5E73C
:100873000000F888888888FF88888888F800000046
:1008830000001F080808087F888888889F80F00078
:10089300D7D380828282828282E2A2928A868280F7
:1008A3008000000000000040807F00000000000086
:1008B3000000BCBC101010FF109008888888FF88C7
:1008C300888808000444827F01808040432C1028DC
:1008D30046818000CAF50010101010D030FF30D0D0
:1008E300121C1010000010080402010000FF000099
:1008F300010204081000CFB5000022322AA6A2622A
:100903002111098101000000004222130B42827E63
:1009130002020A1223460000CDB32030AC6330003C
:1009230088C8A8998E88A8C88800226722121280D6
:1009330040300F00003F40407100C9E8404042CCC6
:100943000040A09E8282829EA02020000000003FE3
:10095300908840432C10284641808000D6C300175E
:1009630015D55557557D555755D51517000040409A
:10097300407F555555555555557F40404000D2F45D
:100983004040444454644546446454444440400015
:10099300000000FF49494949494949FF0000000057
:1009A300C1BF202020BEAAAAAAAAAAAAAABE202002
:1009B3002000008080AFAAAAAAFFAAAAAAAF8080BB
:1009C3000000D1D500E42C35A6742C2402F21AD6EB
:1009D30012F20200403F808944221108804F300FF9
:1009E300102FC000C9AB2010E824272424E42434AA
:1009F3002C20E000000000003F42424242434242BA
:100A0300424243407800CDF800FE02224282720245
:100A13002242827202FE000000FF100806010E103F
:100A23000806014E807F0000C2E72030AC6330200F
:100A33001018A744A4140C00000022672212120409
:100A430002FD44444445FD020200C8AB000000001F
:100A530000000080C0701C0C1420408000000000C7
:100A6300000000000010100804060705040404FC3D
:100A7300FC040404058786060C040400000000201F
:100A8300202021212121213F3F212121212020201C
:100A930030200000B6AF00002020202020202010AE
:100AA3001000000000FC0400000080800000000033
:100AB3000484643C0C0424C482020001C17F01014C
:100AC3000101FF1F000000000605060202020242A8
:100AD300231608060110202060703F000000B5E7D0
:100AE30000000000C0404040404040FC44404040C3
:100AF3004040C0400000000000000000FF0808085C
:100B0300080808FF080808080808FF00000000009C
:100B130000000000030101010101013F6141414166
:100B2300414141406C300000D7D300000000080869
:100B33000808080808880888484828181C0800007E
:100B430000000008080808080808080808FFFF084C
:100B53000808080808080C0C080000000000000042
:100B630000002020607F3F00000000000000000024
:100B73000000BCBC0000808080FEFC84404080807C
:100B8300808080FC848080804040000000006020E2
:100B930020FFFF100808080838C8080F0888E8383D
:100BA3000800000000000020607F3F00404040201C
:100BB30010100B0C0E13302060602000CAF50000EB
:100BC300000000000000000000FCFC0400081830D6
:100BD3007080C080000000000101010181C1311D4E
:100BE30007FFFF071961C181010000000000001029
:100BF3000808040301000000007F7F0000000001DB
:100C030003060E040400C8AB00000000000000004F
:100C130000000080C0F03C1C384080000000000051
:100C23000000000000000000000000008040607031
:100C3300584C4643414040C0C0404143464C78581D
:100C4300B07060E06040000000020101000000207D
:100C530020202020202020FFFF20202020203038AB
:100C63003020000000000000000000202020202091
:100C7300202020202020203F3F2020202020202033
:100C83002020303830200000B6AF000040C0404084
:100C93004040404040406060400000000000FCF8DD
:100CA30008000000000000000000000020202020B9
:100CB30020E0E0E020202030383024040404FFFF4B
:100CC3000404040404FEFE04000000008040A09815
:100CD3008E83818080849870E0800000C07C0F0048
:100CE3000000000000FF3F000000000001030101BD
:100CF300010000000040202013090603010008083A
:100D0300103070303E0F00000000B5E70000000017
:100D130000000000000000000000FCFC08000000D0
:100D230000000000000000000000000000000000C0
:100D330000FFFF81818181818181FFFF8181818129
:100D430081818181FFFF000000000000000000009E
:100D530000FFFF20202020202020FFFF2020202034
:100D6300202020207F3F0000000000000000000042
:100D7300000000000000000000001F3F3020202082
:100D830020202020202020393E100000D7D300004F
:100D93000000000010101010101010101010101090
:100DA30010101090D07038383000000000000000A0
:100DB30080808080808080808080808080FCFC8C2C
:100DC3008283818080808080C0E0C080000000003A
:100DD30000000000000000000000000000FFFF0012
:100DE3000000000000000000000000000000000000
:100DF300000000000000000010101030703F1F00C2
:100E03000000000000000000000000000000BCBC67
:100E130000000000000000FCFC08000000000000CF
:100E230000000000FCF808000000000000000000C3
:100E330000000202020202FFFF0282834342828217
:100E430082828282FFFF82828282C2830302000047
:100E530000000C0C060602FFFF010000000000006A
:100E6300030C70C08080C0703C0F030000000000C2
:100E7300000000101030703F3F0040402020301031
:100E830018080C0603070E0C183830303020000009
:100E9300CAF5000000000000000000000000000090
:100EA30000FCF8080000103060E0C0000000000003
:100EB30000000000040C0404040404040404C4F447
:100EC3003CFFFF1C648404040404050406060400B8
:100ED300000000000000000080C070180C07030031
:100EE30000FFFF000003061C3870E0C08080000094
:100EF30000000008080402010000000000000000D8
:100F0300007F3F0000000000000000010307030111
:020F13000000DC
:0426AB008F088D09FE
:1026AF00C3EB950804F510C3E50B950904F511E587
:1026BF000C6005750FFF8003E4F50FE4F50DE50DD4
:1026CF00C395115027E509250DFDAF08122835E4F4
:1026DF00F50EE50EC39510500FAF0F7E007D017CF8
:0C26EF0000122895050E80EA050D80D22F
:0126FB0022BC
:041DAA008F158D16EE
:101DAE00E4F51AF51BF51CEB24E0F51AE515D394B2
:101DBE007F4007E4F51505160516E5186410600357
:101DCE00021E4FF51CE516251CFDAF15122835E435
:101DDE00F51BE51975F0106027E51AA4251BF58291
:101DEE00E435F0F58375F008E51C121D9EE582249E
:101DFE003DF582E5833402F583E493FF7E00802770
:101E0E00E51AA4251BF582E435F0F58375F008E597
:101E1E001C121D9EE582243DF582E5833402F58376
:101E2E00E493F4FFE4F4FE7D017C00122895051B7B
:101E3E00E51BC39408409B051CE51CC3940240851A
:101E4E0022AD16AF15122835E4F51BE51975F0060F
:101E5E00601FE51AA42403F582E5F03400F583E54E
:101E6E0082251BF582E43583F583E493FF7E0080A3
:101E7E001FE51AA42403F582E5F03400F583E5820C
:101E8E00251BF582E43583F583E493F4FFE4F4FE39
:101E9E007D017C00122895051BE51BC3940640AB03
:011EAE002211
:0A253C008F088D098B0A8A0B890CA9
:10254600E4F50FE50DB41006C313F510800EE50D86
:1025560064087044E50DC3132402F510AB0AAA0BF8
:10256600A90C850F82758300121C54FB602A850D09
:1025760018850E19AD09AF08121DAAE5102508F534
:1025860008D39478400EE4F508E50D131313541F91
:082596002509F509050F80C4B9
:01259E00221A
:0427FC008F158D1692
:10280000E4751A01F519F518F517AF161516EF60EE
:102810001BAB1AAA19A918A817AF15E4FCFDFE12E4
:102820001C818F1A8E198D188C1780DEAF1AAE1985
:04283000AD18AC171C
:012834002281
:042279008F088D0934
:10227D00E4F513E50FB41006C313F5148011E50F43
:10228D0064086003022317E50FC3132402F514E459
:10229D00F511E511C3950E5071C3E50E951114FDA1
:1022AD007F0A1227FCA804A905AA06AB07AF0DAE3D
:1022BD000CAD0BAC0A121D0CE47B0AFAF9F8121DD9
:1022CD000CAF038F12E5137024E50E14FFE511C357
:1022DD009F501AE5127013E5148511F0A42508FF1F
:1022ED00850F188510197B208017751301E514854E
:1022FD0011F0A42508FFE5122430FB850F18851079
:0A230D0019AD09121DAA0511808800
:0123170022A3
:0A1EAF008F0F8D108B118A1289131A
:101EB900751900751A10E4F515C3E515951AE49519
:101EC900194003021FA6AB11AA12A913121C3BFF4A
:101ED90075F022E515A4242DF582E5F03408F58383
:101EE900E4936F6003021FA1900001121C54FF7557
:101EF900F022E515A4242EF582E5F03408F583E4F3
:101F0900936F6003021FA1F517E5102517FDAF0FA9
:101F1900122835E4F516E514602FE51775F010A4BD
:101F29007C002516FFEC35F0FE75F022E515A4249A
:101F39002FF582E5F03408F583E5822FF582E583F4
:101F49003EF583E493F518802EE51775F010A47C0F
:101F5900002516FFEC35F0FE75F022E515A4242FB7
:101F6900F582E5F03408F583E5822FF582E5833EB5
:101F7900F583E493F4F518AF187E007D017C001217
:101F890028950516E516C39410408B0517E517C368
:0D1F990094025003021F12220515021EC201
:011FA6002218
:0A1FA7008F0F8D108B118A12891321
:101FB100751900751A06E4F515C3E515951AE4952A
:101FC10019400302209EAB11AA12A913121C3BFF58
:101FD10075F04AE515A4244DF582E5F0340AF58340
:101FE100E4936F6003022099900001121C54FF7565
:101FF100F04AE515A4244EF582E5F0340AF583E4B0
:10200100936F6003022099F517E5102517FDAF0FB7
:10201100122835E4F516E514602FE51775F018A4BC
:102021007C002516FFEC35F0FE75F04AE515A42479
:102031004FF582E5F0340AF583E5822FF582E583D9
:102041003EF583E493F518802EE51775F018A47C0E
:10205100002516FFEC35F0FE75F04AE515A4244F76
:10206100F582E5F0340AF583E5822FF582E5833EBA
:10207100F583E493F4F518AF187E007D017C00121E
:1020810028950516E516C39418408B0517E517C367
:0D2091009403500302200A220515021FBA15
:01209E00221F
:0A209F008F0F8D108B118A12891328
:1020A900751900751A06E4F515C3E515951AE49531
:1020B900194003022196AB11AA12A913121C3BFF66
:1020C90075F082E515A42409F582E5F0340CF58351
:1020D900E4936F6003022191900001121C54FF7573
:1020E900F082E515A4240AF582E5F0340CF583E4C1
:1020F900936F6003022191F517E5102517FDAF0FC6
:10210900122835E4F516E514602FE51775F020A4BB
:102119007C002516FFEC35F0FE75F082E515A42448
:102129000BF582E5F0340CF583E5822FF582E58322
:102139003EF583E493F518802EE51775F020A47C0D
:10214900002516FFEC35F0FE75F082E515A4240B89
:10215900F582E5F0340CF583E5822FF582E5833EBF
:10216900F583E493F4F518AF187E007D017C001225
:1021790028950516E516C39420408B0517E517C366
:0D218900940450030221022205150220B229
:012196002226
:1024BF008F088D098B0AAB0BAA0CA90D121C3B6060
:1024CF006BE50AB4100C850E14AD09AF08121EAFE0
:1024DF00802DE50AB41812AB0BAA0CA90D850E14AA
:1024EF00AD09AF08121FA78016E50A6420703DAB37
:1024FF000BAA0CA90D850E14AD09AF0812209FE58C
:10250F000A2508F508C37480950AFFE508D39F4094
:10251F000EE4F508E50A131313541F2509F5097482
:0D252F0002250DF50DE4350CF50C808A2217
:0623B7008F088D098B0A5E
:1023BD00E4F510E50B2407FFE433FEEF7803CEC3FD
:1023CD0013CE13D8F9FFE510C39F5062E509251010
:1023DD00FDAF08122835E4F511E511C3950A504AF1
:1023ED00E50F601CE510850AF0A42511F582E43592
:1023FD00F0F583AB0CAA0DA90E121C54F512801B1F
:10240D00E510850AF0A42511F582E435F0F583ABCE
:10241D000CAA0DA90E121C54F4F512AF127E007DFC
:0E242D00017C00122895051180AF05108085F6
:01243B00227E
:100F15004F4C4544205445535400302E3936222039
:100F25005353443133303600363458313238007734
:100F350077772E6C636477696B692E636F6D0042FA
:100F45004C41434B003678383A61626364656667A5
:100F550068696A6B6C6D6E6F707172737475767794
:100F650078797A00387831363A6162636465666704
:100F750068696A6B6C6D6E6F707172737475767774
:100F850078797A003678383A4142434445464748AD
:100F9500494A4B4C4D4E4F50515253545556575844
:100FA500595A00387831363A414243444546474814
:100FB500494A4B4C4D4E4F50515253545556575824
:100FC500595A003678383A212223242526272829FC
:100FD5002A2B2C2D2E2F3A3B3C3D3E3F405B5D5C42
:100FE5005E5F607E7B7D7C00387831363A21222336
:100FF5002425262728292A2B2C2D2E2F3A3B3C3D0C
:101005003E3F405B5D5C5E5F607E7B7D7C00313694
:1010150078313600C8ABB6AFB5E7D7D3BCBCCAF597
:1010250000323478323400C8ABB6AFB5E7D7D30059
:1010350033327833320000060A1222FE22120A8663
:1010450000C000E000F00000000000F80402020407
:1010550000FE040804FE00F80402020400F804027D
:10106500020400000000008850FE225488000000A1
:1010750000000010084424129212244408100000B5
:101085000000000000FCFA76AEDEDEDEDEDEDEDE2F
:10109500DEAE76FAFC000000000000000000000053
:1010A500F88888FE02FAFA02FAFA02FAFA02FAFA5D
:1010B50002FAFA02FE00000000000003000300032C
:1010C500000300030003000000000000010202010C
:1010D50000030000000300000102020100000102FC
:1010E50002010000000000000003020100000000F2
:1010F50000000000000000010301000000000000E6
:1011050000000000000102030303030303030303BC
:1011150003030302010000000000000000000000BE
:10112500000000030202020202020202020202029F
:10113500020202020300000000000000000000009F
:10114500000000000000000000000000000000009A
:10115500000000000000C06030180C06FFFF000012
:10116500FEFF030303030303030303FFFE00000065
:1011750000606000000000FEFFC3C3C3C3C3C3C358
:10118500C3C3C3C30000FEFF030303030303030339
:1011950003FFFE000000000000000000000000004A
:1011A500000000000000000000000000000000003A
:1011B500000000000000000000000000000000002A
:1011C500000000000000000000000000000000001A
:1011D500000000000000000000000000FFFF00000C
:1011E500FFFF030303030303030303FFFF000000E3
:1011F50000181800000000C0C0000000000000003A
:101205000000FFFF0000FFFF0000000000000000DD
:1012150000FFFF00000000000000000000000000CB
:1012250000000000000000000000000000000000B9
:1012350000000000000000000000000000000000A9
:101245000000000000000000000000000000000099
:101255000000000000008080808000000383808003
:1012650081030303838303030303838381800000D6
:1012750000000000000080838383030303838383CE
:1012850083030301000001030383838383030303B3
:101295008383818000000000000000000000000042
:1012A5000000000000000000000000000000000039
:1012B5000000000000000000000000000000000029
:1012C5000000000000000000000000000000000019
:1012D5000000000000213028242221001F202020AA
:1012E500201F0021203F2020001F242424241F002C
:1012F50000303000001F202020201F001F24242440
:1013050024190000303000001F202020201F001F5E
:10131500242424241900000000000000000000001F
:1013250000000000000000000000000000000000B8
:1013350000000000000000000000000000000000A8
:101345000000000000000000000000000000000098
:101355000000000000000000000000000000000088
:101365000000000000000000000000000000000078
:101375000000000000008080808080808080000068
:101385000000000000000000000000000000000058
:101395000000000000000000000000000000000048
:1013A5000000000000000000000000000000000038
:1013B500000000000000007F02040804027F001CFA
:1013C5002A4949494A24007F02040810207F001F4A
:1013D50020404040201F00000000000000000000E9
:1013E50000000000000000000000000000000000F8
:1013F5000000000000007F2A2A2A0808007F00005C
:1014050000000000000000000000000000000000D7
:1014150000000000000000000000000000007F0246
:10142500040804027F0026494949494932007F02E0
:10143500040810207F0000000000000000000000EC
:101445000000000000000000000000000000000097
:10145500000000000000000000000000FC44C4443F
:10146500483000FC000000000000FC00FC081020D3
:1014750040800000FC00FC08102040800000FC00BB
:1014850004FC0400FC08102040800000FC00F0086B
:101495000444444444C8000000000000000000006B
:1014A5000000000000000000000000000000000037
:1014B5000000000000000000000000000000000027
:1014C5000000000000000000000000000000000017
:1014D50000000000000000000000000007000001FF
:1014E50002040001020404040402010007000000D4
:1014F50000000102070007000000000001020700CC
:1015050004070400070000000000010207000102B3
:1015150004040402010700000000000000000000B0
:1015250000000000000000000000000000000000B6
:1015350000000000000000000000000000000000A6
:101545000000000000000000000000000000000096
:1015550000000000000000F0F80C0603030303037D
:1015650003030303079EF8F000000000FFFF0303D9
:101575000303030303030303030303000000000045
:101585000038FCFEFFFFFFFFFEFEFCFCFEFEFFFF3A
:10159500FFFFFEFEFC380000000000000000000018
:1015A5000000000000000000000000000000000036
:1015B5000000000000000000000000000000000026
:1015C5000000000000000000000000000000000016
:1015D50000000000000000C1E367361C1818181849
:1015E5001818181C3663C180000000000F0F060391
:1015F5000303030303030303060EFCF000000000CE
:10160500000000010307070F1F1F3F7F3F1F1F0F2C
:1016150007070301000000000000000000000000B3
:1016250000000000000000000000000000000000B5
:1016350000000000000000000000000000000000A5
:101645000000000000000000000000000000000095
:10165500000000000000001F3F60C0C0C0C0C0C047
:10166500C0C0C0C060703F1F00000018387060C067
:10167500C0C0C0C0C0C0C0C060303F0F0000000087
:1016850000FE100808F000F0100808F000F0080847
:10169500F0100808F0000000000000000000000045
:1016A5000000000000000000000000000000000035
:1016B5000000000000000000000000000000000025
:1016C5000000000000000000000000000000000015
:1016D5000000000000000000000000000000000005
:1016E50000000000000000000000000000000000F5
:1016F50080C040C000000000000000000000008025
:101705008000010101000007010101000001000046
:1017150001000000010000000000000000000000C2
:1017250000000000000000000000000000000000B4
:1017350000000000000000000000000000000000A4
:101745000000000000000000000000000000000094
:101755000000000000000000000000000000000084
:101765008040300C060101067880000000C0380674
:1017750001000000031CE00000000080700C030065
:1017850000030C308000000000F00C020100000096
:101795000000000000000000000000000000000044
:1017A5000000000000000000000000000000000034
:1017B5000000000000000000000000000000000024
:1017C5000000000000000000000000000000000014
:1017D5000000000000000000000000000000000103
:1017E50000000000000000000007181807000000B6
:1017F50000000000000000071818060100000000A6
:1018050000000000010E10100F0000000000000095
:1018150000000000000000000000000000000000C3
:1018250000000000000000000000000000000000B3
:1018350000000000000000000000000000000000A3
:101845000000000000000000000000000000000093
:101855000000000000000000000000000000000083
:1018650000000000000000008080C04020203010F3
:10187500100808080808080808081010303020204B
:1018850060404040C08080800000000000000000F3
:101895000000000000000000000000000000000043
:1018A5000000000000000000000000000000000033
:1018B5000000000000000000000000000000000023
:1018C5000000000000000000000000000000000013
:1018D50000000000000000000000000000C06018CB
:1018E50008040602020101010100808000000000D9
:1018F50000000000000000000000000000000000E3
:101905000000000000000001010302040C08106043
:101915008000000000000000000000000000000042
:1019250000000000000000000000000000000000B2
:1019350000000000000000000000000000000000A2
:101945000000000000000000000000000000000092
:10195500000000000000000000000000FE0F000075
:101965008080C0C0E0E0F0F8FCFEFFFFFFFFFFFF56
:10197500FEFEFEFEFEFCFCFCFCFCFCFCFCFCF8F8A0
:10198500F8F8F8F8F8F8F8F8F08000000000000022
:1019950081CF3800000000000000000000000000BA
:1019A5000000000000000000000000000000000032
:1019B5000000000000000000000000000000000022
:1019C5000000000000000000000000000000000012
:1019D500000000000000000000000000033FE08060
:1019E5004FE7F7F7F7F7B717B7F7F7F7F7F7EF1F7A
:1019F5009FDFDFDF1F6FF7F7F7F7F7B717B7F7F7D2
:101A0500F7F7F76F9FDFDFDFDFCFE0F0E002874515
:101A15004930000000000000000000000000000048
:101A250000000000000000000000000000000000B1
:101A350000000000000000000000000000000000A1
:101A45000000000000000000000000000000000091
:101A5500000000000000000000000000000001037D
:101A65000F1E3E7DFDFDFDFDFDFDFDFDFDDE9E9F89
:101A75001F1F1F9F9F9EDEFDFDFDFDFDFDFDFDFD65
:101A8500FDFCFEFE7F7F3F1F0F0F070703010000D0
:101A95000000000000000000000000000000000041
:101AA5000000000000000000000000000000000031
:101AB5000000000000000000000000000000000021
:101AC5000000000000000000000000000000000011
:101AD5000000000000000000000000000000000001
:101AE50000000000000001010303070707070F0FAF
:101AF5000F0F0F0F0F0F0F0F070707070303030143
:101B050001010000000000000000000000000000CE
:101B150000000000000000000000000000000000C0
:101B250000000000000000000000000000000000B0
:101B350000000000000000000000000000000000A0
:101B45000000000000000000000000000000000090
:101B550000001E3F7FCECC80000000000000242442
:101B6500244C4888101060C00000000000000000F0
:101B750000000000000000000008282CE4667658EC
:101B850058D0D8585662E624242000202C24E46638
:101B95005E58D8D8585E76E2242420000000000064
:101BA5000000000000000000000000000000000030
:101BB5000000000000000000000000000000000020
:101BC5000000000000000000000000000000000010
:101BD50000000000000001030306060E0E0F0F0EA5
:101BE50004000003000000030000000000000000E6
:101BF5000000000000000000000000000F1212129B
:101C050012131312121213100C00000000000F1211
:101C1500121213131212121310100C000000000000
:101C250000000000000000000000000000000000AF
:061C3500000000000000A9
:10259F007BFF7A0F7915750D10750E01E4FD7F1C09
:1025AF0012253C7BFF7A0F791F750D10750E017D7B
:1025BF00027F0C12253C7BFF7A0F792D750D10755C
:1025CF000E017D047F2812253C7BFF7A0F7934752D
:1025DF000D10750E017D067F0412253C7FDC7E05F4
:0A25EF001228637FDC7E05022863DA
:10278600750B07E4F50C7B7FFDFF1226AB7BFF7A0A
:102796000F7944750D10750E017D017F0A12253CD7
:1027A6007FE87E03122863750B07750C017B7FE4B7
:0C27B600FDFF1226AB7FDC7E05022863CD
:102653007BFF7A0F794A750D08750E01E4FDFF12B1
:10266300253C7BFF7A0F7969750D10750E017D028C
:10267300E4FF12253C7FE87E031228637BFF7A0F79
:102683007989750D08750E01E4FDFF12253C7BFF6A
:102693007A0F79A8750D10750E017D02E4FF1225DE
:0826A3003C7FDC7E0502286388
:10243C00750B03E4F50C7B7FFDFF1226AB7BFF7A5B
:10244C000F79C8750D08750E01E4FDFF12253C755A
:10245C000DD2750C02750B96750A49750E0A750F1F
:10246C00087510017D027F1E1222797FE87E03120F
:10247C002863E4FFFE1226FC7BFF7A0F79ED750DC5
:10248C0010750E01E4FDFF12253C750DD2750C0282
:10249C00750B96750A49750E0A750F107510017D2E
:1024AC00047F281222797FDC7E05122863E4FFFE6C
:0324BC000226FCF9
:102318007BFF7A107913750D08750E01E4FD7F2D8A
:1023280012253C750BFF750C10750D19750E017B88
:10233800107D027F101224BF7FE87E03122863E419
:10234800FFFE1226FC7BFF7A107926750D08750EA4
:1023580001E4FD7F2D12253C750BFF750C10750DE2
:102368002C750E017B187D027F101224BF7FE87E3A
:1023780003122863E4FFFE1226FC7BFF7A107935EE
:10238800750D08750E01E4FD7F2D12253C750BFFB8
:10239800750C10750D2C750E017B207D02E4FF1263
:0F23A80024BF7FE87E03122863E4FFFE0226FCB9
:1025F900750B40750CFF750D10750E3B750F017B42
:1026090080E4FDFF1223B77FE87E03122863750B70
:1026190040750CFF750D14750E3B750F017B80E439
:10262900FDFF1223B77FE87E03122863750B4075FF
:102639000CFF750D18750E3B750F017B80E4FDFFCE
:0A2649001223B77FE87E0302286326
:102863007D597C03ED1D70011C144C70F7EF1F7034
:06287300011E144E70EA84
:01287900223C
:06288F007F10E4FDFCFED9
:08289500C2931227C2D2932264
:102835008F1DED24B0FFE433FEE4FDFC122895E581
:102845001D54F0C4540F7E004410FFE4FDFC122813
:0E28550095E51D540FFF7E00E4FDFC02289562
:1026FC00EF4E6005750AFF8003E4F50AE4F508E582
:10270C000824B0FFE433FEE4FDFC122895E4FDFC44
:10271C00FFFE12289512288FE4F509AF0A7E007D82
:10272C00017C001228950509E509C3948040EC054D
:08273C0008E508C3940840C73A
:012744002272
:10287A00D2B37F647E00122863C2B37F647E0012E3
:05288A002863D2B32217
:102197001228A97FC87E0012286312287A7FAE1200
:1021A7002891E4FDFCFFFE12289512288FE4FDFC20
:1021B7007F40FE122895E4FDFC7FB0FE122895E4CF
:1021C700FDFC7F81FE122895E4FDFC7FFFFE1228AF
:1021D70095E4FDFC7FA1FE122895E4FDFC7FA6FE99
:1021E700122895E4FDFC7FA8FE122895E4FDFC7FEC
:1021F7003FFE122895E4FDFC7FC8FE122895E4FDFA
:10220700FC7FD3FE122895E4FDFCFFFE122895E41F
:10221700FDFC7FD5FE122895E4FDFC7F80FE122889
:1022270095E4FDFC7FD9FE122895E4FDFC7FF1FEC5
:10223700122895E4FDFC7FDAFE122895E4FDFC7F69
:1022470012FE122895E4FDFC7FDBFE122895E4FDC3
:10225700FC7F30FE122895E4FDFC7F8DFE12289549
:10226700E4FDFC7F14FE122895E4FDFC7FAFFE021F
:022277002895A8
:0428A90075CEDC22EA
:0227C200A90567
:1027C400E4EF75F080A4FDE9C4333333548045F05D
:1027D400FAEDFB7D02ED1475F008A4FFEBAE02A840
:1027E40007088005CEC313CE13D8F9F5CFE5CD3055
:0727F400E7FB75CDC0DDDE3F
:0127FB0022BB
:0300000002289D36
:0C289D00787FE4F6D8FD75811D02274508
:101C3B00BB010689828A83E0225002E722BBFE02A7
:091C4B00E32289828A83E49322DA
:101C5400BB010CE58229F582E5833AF583E0225045
:101C640006E92582F8E622BBFE06E92582F8E2228F
:0D1C7400E58229F582E5833AF583E49322A9
:101C8100E88FF0A4CC8BF0A42CFCE98EF0A42CFC02
:101C91008AF0EDA42CFCEA8EF0A4CDA8F08BF0A480
:101CA1002DCC3825F0FDE98FF0A42CCD35F0FCEBDF
:101CB1008EF0A4FEA9F0EB8FF0A4CFC5F02ECD39A4
:0F1CC100FEE43CFCEAA42DCE35F0FDE43CFC2211
:101CD00075F008758200EF2FFFEE33FECD33CDCCCB
:101CE00033CCC58233C5829BED9AEC99E58298404E
:101CF0000CF582EE9BFEED9AFDEC99FC0FD5F0D62B
:101D0000E4CEFBE4CDFAE4CCF9A88222B800C1B954
:101D10000059BA002DEC8BF084CFCECDFCE5F0CB92
:101D2000F97818EF2FFFEE33FEED33FDEC33FCEBCB
:101D300033FB10D703994004EB99FB0FD8E5E4F986
:101D4000FA227818EF2FFFEE33FEED33FDEC33FC73
:101D5000C933C910D7059BE99A4007EC9BFCE99A67
:101D6000F90FD8E0E4C9FAE4CCFB2275F010EF2FAC
:101D7000FFEE33FEED33FDCC33CCC833C810D707AC
:101D80009BEC9AE899400AED9BFDEC9AFCE899F8E7
:0E1D90000FD5F0DAE4CDFBE4CCFAE4C8F9227A
:0C1D9E00A42582F582E5F03583F5832250
:00000001FF
